{
  "contractName": "Blocks",
  "abi": [
    {
      "inputs": [],
      "stateMutability": "nonpayable",
      "type": "constructor"
    },
    {
      "anonymous": false,
      "inputs": [
        {
          "indexed": false,
          "internalType": "uint256",
          "name": "_blockNumber",
          "type": "uint256"
        },
        {
          "indexed": false,
          "internalType": "string",
          "name": "_parentHash",
          "type": "string"
        },
        {
          "indexed": false,
          "internalType": "string",
          "name": "_stateRoot",
          "type": "string"
        },
        {
          "indexed": false,
          "internalType": "string",
          "name": "_extrinsicsRoot",
          "type": "string"
        }
      ],
      "name": "blockDetailRecorded",
      "type": "event"
    },
    {
      "inputs": [],
      "name": "blockCount",
      "outputs": [
        {
          "internalType": "uint256",
          "name": "",
          "type": "uint256"
        }
      ],
      "stateMutability": "view",
      "type": "function",
      "constant": true
    },
    {
      "inputs": [
        {
          "internalType": "uint256",
          "name": "",
          "type": "uint256"
        }
      ],
      "name": "blocks",
      "outputs": [
        {
          "internalType": "string",
          "name": "parentHash",
          "type": "string"
        },
        {
          "internalType": "uint256",
          "name": "blockNumber",
          "type": "uint256"
        },
        {
          "internalType": "string",
          "name": "stateRoot",
          "type": "string"
        },
        {
          "internalType": "string",
          "name": "extrinsicsRoot",
          "type": "string"
        }
      ],
      "stateMutability": "view",
      "type": "function",
      "constant": true
    },
    {
      "inputs": [],
      "name": "contractOwner",
      "outputs": [
        {
          "internalType": "address",
          "name": "",
          "type": "address"
        }
      ],
      "stateMutability": "view",
      "type": "function",
      "constant": true
    },
    {
      "inputs": [
        {
          "internalType": "string",
          "name": "_parentHash",
          "type": "string"
        },
        {
          "internalType": "uint256",
          "name": "_blockNumber",
          "type": "uint256"
        },
        {
          "internalType": "string",
          "name": "_stateRoot",
          "type": "string"
        },
        {
          "internalType": "string",
          "name": "_extrinsicsRoot",
          "type": "string"
        }
      ],
      "name": "addBlockDetails",
      "outputs": [],
      "stateMutability": "nonpayable",
      "type": "function"
    },
    {
      "inputs": [
        {
          "internalType": "uint256",
          "name": "_begin",
          "type": "uint256"
        },
        {
          "internalType": "uint256",
          "name": "_end",
          "type": "uint256"
        }
      ],
      "name": "returnMappingData",
      "outputs": [
        {
          "components": [
            {
              "internalType": "string",
              "name": "parentHash",
              "type": "string"
            },
            {
              "internalType": "uint256",
              "name": "blockNumber",
              "type": "uint256"
            },
            {
              "internalType": "string",
              "name": "stateRoot",
              "type": "string"
            },
            {
              "internalType": "string",
              "name": "extrinsicsRoot",
              "type": "string"
            }
          ],
          "internalType": "struct Blocks.BlockDetails[100]",
          "name": "",
          "type": "tuple[100]"
        }
      ],
      "stateMutability": "view",
      "type": "function",
      "constant": true
    }
  ],
  "bytecode": "0x60806040526000805534801561001457600080fd5b5033600160006101000a81548173ffffffffffffffffffffffffffffffffffffffff021916908373ffffffffffffffffffffffffffffffffffffffff160217905550611141806100656000396000f3fe608060405234801561001057600080fd5b50600436106100565760003560e01c80627b7f971461005b57806307225b4d1461008b578063ce606ee0146100a9578063e6295399146100c7578063f25b3f99146100e3575b600080fd5b61007560048036038101906100709190610723565b610116565b6040516100829190610932565b60405180910390f35b61009361034b565b6040516100a09190610963565b60405180910390f35b6100b1610351565b6040516100be91906109bf565b60405180910390f35b6100e160048036038101906100dc9190610b0f565b610377565b005b6100fd60048036038101906100f89190610bca565b6104bb565b60405161010d9493929190610c41565b60405180910390f35b61011e610683565b610126610683565b60008490505b83811015610340576002600082815260200190815260200160002060405180608001604052908160008201805461016290610cca565b80601f016020809104026020016040519081016040528092919081815260200182805461018e90610cca565b80156101db5780601f106101b0576101008083540402835291602001916101db565b820191906000526020600020905b8154815290600101906020018083116101be57829003601f168201915b50505050508152602001600182015481526020016002820180546101fe90610cca565b80601f016020809104026020016040519081016040528092919081815260200182805461022a90610cca565b80156102775780601f1061024c57610100808354040283529160200191610277565b820191906000526020600020905b81548152906001019060200180831161025a57829003601f168201915b5050505050815260200160038201805461029090610cca565b80601f01602080910402602001604051908101604052809291908181526020018280546102bc90610cca565b80156103095780601f106102de57610100808354040283529160200191610309565b820191906000526020600020905b8154815290600101906020018083116102ec57829003601f168201915b50505050508152505082826064811061032557610324610cfb565b5b6020020181905250808061033890610d59565b91505061012c565b508091505092915050565b60005481565b600160009054906101000a900473ffffffffffffffffffffffffffffffffffffffff1681565b338073ffffffffffffffffffffffffffffffffffffffff16600160009054906101000a900473ffffffffffffffffffffffffffffffffffffffff1673ffffffffffffffffffffffffffffffffffffffff1614610408576040517f08c379a00000000000000000000000000000000000000000000000000000000081526004016103ff90610e13565b60405180910390fd5b6000600260008054815260200190815260200160002090508481600101819055508581600001908161043a9190610fdf565b508381600201908161044c9190610fdf565b508281600301908161045e9190610fdf565b507ff6042d01ea9c8e0fef2ef73595faff4c86ab2ea197ce6a682d4350f5cfc8f81e8587868660405161049494939291906110b1565b60405180910390a16000808154809291906104ae90610d59565b9190505550505050505050565b60026020528060005260406000206000915090508060000180546104de90610cca565b80601f016020809104026020016040519081016040528092919081815260200182805461050a90610cca565b80156105575780601f1061052c57610100808354040283529160200191610557565b820191906000526020600020905b81548152906001019060200180831161053a57829003601f168201915b50505050509080600101549080600201805461057290610cca565b80601f016020809104026020016040519081016040528092919081815260200182805461059e90610cca565b80156105eb5780601f106105c0576101008083540402835291602001916105eb565b820191906000526020600020905b8154815290600101906020018083116105ce57829003601f168201915b50505050509080600301805461060090610cca565b80601f016020809104026020016040519081016040528092919081815260200182805461062c90610cca565b80156106795780601f1061064e57610100808354040283529160200191610679565b820191906000526020600020905b81548152906001019060200180831161065c57829003601f168201915b5050505050905084565b60405180610c8001604052806064905b61069b6106b1565b8152602001906001900390816106935790505090565b6040518060800160405280606081526020016000815260200160608152602001606081525090565b6000604051905090565b600080fd5b600080fd5b6000819050919050565b610700816106ed565b811461070b57600080fd5b50565b60008135905061071d816106f7565b92915050565b6000806040838503121561073a576107396106e3565b5b60006107488582860161070e565b92505060206107598582860161070e565b9150509250929050565b600060649050919050565b600081905092915050565b6000819050919050565b600081519050919050565b600082825260208201905092915050565b60005b838110156107bd5780820151818401526020810190506107a2565b838111156107cc576000848401525b50505050565b6000601f19601f8301169050919050565b60006107ee82610783565b6107f8818561078e565b935061080881856020860161079f565b610811816107d2565b840191505092915050565b610825816106ed565b82525050565b6000608083016000830151848203600086015261084882826107e3565b915050602083015161085d602086018261081c565b506040830151848203604086015261087582826107e3565b9150506060830151848203606086015261088f82826107e3565b9150508091505092915050565b60006108a8838361082b565b905092915050565b6000602082019050919050565b60006108c882610763565b6108d2818561076e565b9350836020820285016108e485610779565b8060005b858110156109205784840389528151610901858261089c565b945061090c836108b0565b925060208a019950506001810190506108e8565b50829750879550505050505092915050565b6000602082019050818103600083015261094c81846108bd565b905092915050565b61095d816106ed565b82525050565b60006020820190506109786000830184610954565b92915050565b600073ffffffffffffffffffffffffffffffffffffffff82169050919050565b60006109a98261097e565b9050919050565b6109b98161099e565b82525050565b60006020820190506109d460008301846109b0565b92915050565b600080fd5b600080fd5b7f4e487b7100000000000000000000000000000000000000000000000000000000600052604160045260246000fd5b610a1c826107d2565b810181811067ffffffffffffffff82111715610a3b57610a3a6109e4565b5b80604052505050565b6000610a4e6106d9565b9050610a5a8282610a13565b919050565b600067ffffffffffffffff821115610a7a57610a796109e4565b5b610a83826107d2565b9050602081019050919050565b82818337600083830152505050565b6000610ab2610aad84610a5f565b610a44565b905082815260208101848484011115610ace57610acd6109df565b5b610ad9848285610a90565b509392505050565b600082601f830112610af657610af56109da565b5b8135610b06848260208601610a9f565b91505092915050565b60008060008060808587031215610b2957610b286106e3565b5b600085013567ffffffffffffffff811115610b4757610b466106e8565b5b610b5387828801610ae1565b9450506020610b648782880161070e565b935050604085013567ffffffffffffffff811115610b8557610b846106e8565b5b610b9187828801610ae1565b925050606085013567ffffffffffffffff811115610bb257610bb16106e8565b5b610bbe87828801610ae1565b91505092959194509250565b600060208284031215610be057610bdf6106e3565b5b6000610bee8482850161070e565b91505092915050565b600082825260208201905092915050565b6000610c1382610783565b610c1d8185610bf7565b9350610c2d81856020860161079f565b610c36816107d2565b840191505092915050565b60006080820190508181036000830152610c5b8187610c08565b9050610c6a6020830186610954565b8181036040830152610c7c8185610c08565b90508181036060830152610c908184610c08565b905095945050505050565b7f4e487b7100000000000000000000000000000000000000000000000000000000600052602260045260246000fd5b60006002820490506001821680610ce257607f821691505b602082108103610cf557610cf4610c9b565b5b50919050565b7f4e487b7100000000000000000000000000000000000000000000000000000000600052603260045260246000fd5b7f4e487b7100000000000000000000000000000000000000000000000000000000600052601160045260246000fd5b6000610d64826106ed565b91507fffffffffffffffffffffffffffffffffffffffffffffffffffffffffffffffff8203610d9657610d95610d2a565b5b600182019050919050565b7f4f6e6c79207468652020636f6e7472616374206f776e6572206861732061636360008201527f65737320746f20746869732066756e6374696f6e000000000000000000000000602082015250565b6000610dfd603483610bf7565b9150610e0882610da1565b604082019050919050565b60006020820190508181036000830152610e2c81610df0565b9050919050565b60008190508160005260206000209050919050565b60006020601f8301049050919050565b600082821b905092915050565b600060088302610e957fffffffffffffffffffffffffffffffffffffffffffffffffffffffffffffffff82610e58565b610e9f8683610e58565b95508019841693508086168417925050509392505050565b6000819050919050565b6000610edc610ed7610ed2846106ed565b610eb7565b6106ed565b9050919050565b6000819050919050565b610ef683610ec1565b610f0a610f0282610ee3565b848454610e65565b825550505050565b600090565b610f1f610f12565b610f2a818484610eed565b505050565b5b81811015610f4e57610f43600082610f17565b600181019050610f30565b5050565b601f821115610f9357610f6481610e33565b610f6d84610e48565b81016020851015610f7c578190505b610f90610f8885610e48565b830182610f2f565b50505b505050565b600082821c905092915050565b6000610fb660001984600802610f98565b1980831691505092915050565b6000610fcf8383610fa5565b9150826002028217905092915050565b610fe882610783565b67ffffffffffffffff811115611001576110006109e4565b5b61100b8254610cca565b611016828285610f52565b600060209050601f8311600181146110495760008415611037578287015190505b6110418582610fc3565b8655506110a9565b601f19841661105786610e33565b60005b8281101561107f5784890151825560018201915060208501945060208101905061105a565b8683101561109c5784890151611098601f891682610fa5565b8355505b6001600288020188555050505b505050505050565b60006080820190506110c66000830187610954565b81810360208301526110d88186610c08565b905081810360408301526110ec8185610c08565b905081810360608301526111008184610c08565b90509594505050505056fea2646970667358221220150d8fe40f0e72b948ac78d8545d7c931cf6435b2608101198ccdb32fe70d5b764736f6c634300080f0033",
  "immutableReferences": {},
  "source": "// SPDX-License-Identifier: MIT\npragma solidity >= 0.4.0 < 0.9.0;\n\ncontract Blocks{\n\n    uint public blockCount = 0;\n\n    //address of the contract owner - where the contract will be deployed\n    address public contractOwner;\n\n    //constructor\n    constructor() {\n        contractOwner = msg.sender;\n    }\n\n    //declaring a modifier\n    modifier onlyContractOwner(address _contractOwner){\n        require(contractOwner == _contractOwner, \"Only the  contract owner has access to this function\");\n        _;\n    }\n\n    struct BlockDetails {\n        string parentHash;\n        uint256 blockNumber;\n        string stateRoot;\n        string extrinsicsRoot;\n    }\n\n  \n    //events from afunctions - stored ad transaction logs accessible through the adress of the contract\n    event blockDetailRecorded(uint256 _blockNumber, string  _parentHash, string _stateRoot, string _extrinsicsRoot);\n\n\n    //mapping to hold block details\n    mapping(uint => BlockDetails) public blocks;\n\n  \n    function addBlockDetails(string memory _parentHash, uint256 _blockNumber, string memory _stateRoot, string memory _extrinsicsRoot) public onlyContractOwner(msg.sender) {\n        //pushing new struct item into new mapping list\n        BlockDetails storage blockObj = blocks[blockCount];\n        blockObj.blockNumber = _blockNumber;\n        blockObj.parentHash = _parentHash;\n        blockObj.stateRoot = _stateRoot;\n        blockObj.extrinsicsRoot = _extrinsicsRoot;\n        emit blockDetailRecorded(_blockNumber, _parentHash, _stateRoot, _extrinsicsRoot);\n        blockCount++;\n    }\n\n    function returnMappingData(uint _begin, uint _end) external view returns(BlockDetails[100] memory){\n        BlockDetails[100] memory myArray;\n        for(uint i = _begin; i < _end; i++){\n            myArray[i] = blocks[i];\n        }\n        return myArray;\n    }\n\n}",
  "sourcePath": "/Users/mac/Documents/polygon_projects/block_headers/sol_contracts/contracts/Blocks.sol",
  "compiler": {
    "name": "solc",
    "version": "0.8.15+commit.e14f2714.Emscripten.clang"
  },
  "schemaVersion": "3.4.8",
  "updatedAt": "2023-01-11T07:14:27.881Z",
  "networkType": "ethereum",
  "devdoc": {
    "kind": "dev",
    "methods": {},
    "version": 1
  },
  "userdoc": {
    "kind": "user",
    "methods": {},
    "version": 1
  }
}