{
  "contractName": "Blocks",
  "abi": [
    {
      "inputs": [],
      "stateMutability": "nonpayable",
      "type": "constructor"
    },
    {
      "anonymous": false,
      "inputs": [
        {
          "indexed": false,
          "internalType": "uint256",
          "name": "_blockNumber",
          "type": "uint256"
        },
        {
          "indexed": false,
          "internalType": "string",
          "name": "_parentHash",
          "type": "string"
        },
        {
          "indexed": false,
          "internalType": "string",
          "name": "_stateRoot",
          "type": "string"
        },
        {
          "indexed": false,
          "internalType": "string",
          "name": "_extrinsicsRoot",
          "type": "string"
        }
      ],
      "name": "blockDetailRecorded",
      "type": "event"
    },
    {
      "inputs": [],
      "name": "blockCount",
      "outputs": [
        {
          "internalType": "uint256",
          "name": "",
          "type": "uint256"
        }
      ],
      "stateMutability": "view",
      "type": "function",
      "constant": true
    },
    {
      "inputs": [
        {
          "internalType": "uint256",
          "name": "",
          "type": "uint256"
        }
      ],
      "name": "blocks",
      "outputs": [
        {
          "internalType": "string",
          "name": "parentHash",
          "type": "string"
        },
        {
          "internalType": "uint256",
          "name": "blockNumber",
          "type": "uint256"
        },
        {
          "internalType": "string",
          "name": "stateRoot",
          "type": "string"
        },
        {
          "internalType": "string",
          "name": "extrinsicsRoot",
          "type": "string"
        }
      ],
      "stateMutability": "view",
      "type": "function",
      "constant": true
    },
    {
      "inputs": [],
      "name": "contractOwner",
      "outputs": [
        {
          "internalType": "address",
          "name": "",
          "type": "address"
        }
      ],
      "stateMutability": "view",
      "type": "function",
      "constant": true
    },
    {
      "inputs": [
        {
          "internalType": "string",
          "name": "_parentHash",
          "type": "string"
        },
        {
          "internalType": "uint256",
          "name": "_blockNumber",
          "type": "uint256"
        },
        {
          "internalType": "string",
          "name": "_stateRoot",
          "type": "string"
        },
        {
          "internalType": "string",
          "name": "_extrinsicsRoot",
          "type": "string"
        }
      ],
      "name": "addBlockDetails",
      "outputs": [],
      "stateMutability": "nonpayable",
      "type": "function"
    },
    {
      "inputs": [
        {
          "internalType": "uint256",
          "name": "_begin",
          "type": "uint256"
        },
        {
          "internalType": "uint256",
          "name": "_end",
          "type": "uint256"
        }
      ],
      "name": "returnMappingData",
      "outputs": [
        {
          "components": [
            {
              "internalType": "string",
              "name": "parentHash",
              "type": "string"
            },
            {
              "internalType": "uint256",
              "name": "blockNumber",
              "type": "uint256"
            },
            {
              "internalType": "string",
              "name": "stateRoot",
              "type": "string"
            },
            {
              "internalType": "string",
              "name": "extrinsicsRoot",
              "type": "string"
            }
          ],
          "internalType": "struct Blocks.BlockDetails[5]",
          "name": "",
          "type": "tuple[5]"
        }
      ],
      "stateMutability": "view",
      "type": "function",
      "constant": true
    }
  ],
  "bytecode": "0x60806040526000805534801561001457600080fd5b5033600160006101000a81548173ffffffffffffffffffffffffffffffffffffffff021916908373ffffffffffffffffffffffffffffffffffffffff160217905550611140806100656000396000f3fe608060405234801561001057600080fd5b50600436106100565760003560e01c80627b7f971461005b57806307225b4d1461008b578063ce606ee0146100a9578063e6295399146100c7578063f25b3f99146100e3575b600080fd5b61007560048036038101906100709190610722565b610116565b6040516100829190610931565b60405180910390f35b61009361034b565b6040516100a09190610962565b60405180910390f35b6100b1610351565b6040516100be91906109be565b60405180910390f35b6100e160048036038101906100dc9190610b0e565b610377565b005b6100fd60048036038101906100f89190610bc9565b6104bb565b60405161010d9493929190610c40565b60405180910390f35b61011e610683565b610126610683565b60008490505b83811015610340576002600082815260200190815260200160002060405180608001604052908160008201805461016290610cc9565b80601f016020809104026020016040519081016040528092919081815260200182805461018e90610cc9565b80156101db5780601f106101b0576101008083540402835291602001916101db565b820191906000526020600020905b8154815290600101906020018083116101be57829003601f168201915b50505050508152602001600182015481526020016002820180546101fe90610cc9565b80601f016020809104026020016040519081016040528092919081815260200182805461022a90610cc9565b80156102775780601f1061024c57610100808354040283529160200191610277565b820191906000526020600020905b81548152906001019060200180831161025a57829003601f168201915b5050505050815260200160038201805461029090610cc9565b80601f01602080910402602001604051908101604052809291908181526020018280546102bc90610cc9565b80156103095780601f106102de57610100808354040283529160200191610309565b820191906000526020600020905b8154815290600101906020018083116102ec57829003601f168201915b50505050508152505082826005811061032557610324610cfa565b5b6020020181905250808061033890610d58565b91505061012c565b508091505092915050565b60005481565b600160009054906101000a900473ffffffffffffffffffffffffffffffffffffffff1681565b338073ffffffffffffffffffffffffffffffffffffffff16600160009054906101000a900473ffffffffffffffffffffffffffffffffffffffff1673ffffffffffffffffffffffffffffffffffffffff1614610408576040517f08c379a00000000000000000000000000000000000000000000000000000000081526004016103ff90610e12565b60405180910390fd5b6000600260008054815260200190815260200160002090508481600101819055508581600001908161043a9190610fde565b508381600201908161044c9190610fde565b508281600301908161045e9190610fde565b507ff6042d01ea9c8e0fef2ef73595faff4c86ab2ea197ce6a682d4350f5cfc8f81e8587868660405161049494939291906110b0565b60405180910390a16000808154809291906104ae90610d58565b9190505550505050505050565b60026020528060005260406000206000915090508060000180546104de90610cc9565b80601f016020809104026020016040519081016040528092919081815260200182805461050a90610cc9565b80156105575780601f1061052c57610100808354040283529160200191610557565b820191906000526020600020905b81548152906001019060200180831161053a57829003601f168201915b50505050509080600101549080600201805461057290610cc9565b80601f016020809104026020016040519081016040528092919081815260200182805461059e90610cc9565b80156105eb5780601f106105c0576101008083540402835291602001916105eb565b820191906000526020600020905b8154815290600101906020018083116105ce57829003601f168201915b50505050509080600301805461060090610cc9565b80601f016020809104026020016040519081016040528092919081815260200182805461062c90610cc9565b80156106795780601f1061064e57610100808354040283529160200191610679565b820191906000526020600020905b81548152906001019060200180831161065c57829003601f168201915b5050505050905084565b6040518060a001604052806005905b61069a6106b0565b8152602001906001900390816106925790505090565b6040518060800160405280606081526020016000815260200160608152602001606081525090565b6000604051905090565b600080fd5b600080fd5b6000819050919050565b6106ff816106ec565b811461070a57600080fd5b50565b60008135905061071c816106f6565b92915050565b60008060408385031215610739576107386106e2565b5b60006107478582860161070d565b92505060206107588582860161070d565b9150509250929050565b600060059050919050565b600081905092915050565b6000819050919050565b600081519050919050565b600082825260208201905092915050565b60005b838110156107bc5780820151818401526020810190506107a1565b838111156107cb576000848401525b50505050565b6000601f19601f8301169050919050565b60006107ed82610782565b6107f7818561078d565b935061080781856020860161079e565b610810816107d1565b840191505092915050565b610824816106ec565b82525050565b6000608083016000830151848203600086015261084782826107e2565b915050602083015161085c602086018261081b565b506040830151848203604086015261087482826107e2565b9150506060830151848203606086015261088e82826107e2565b9150508091505092915050565b60006108a7838361082a565b905092915050565b6000602082019050919050565b60006108c782610762565b6108d1818561076d565b9350836020820285016108e385610778565b8060005b8581101561091f5784840389528151610900858261089b565b945061090b836108af565b925060208a019950506001810190506108e7565b50829750879550505050505092915050565b6000602082019050818103600083015261094b81846108bc565b905092915050565b61095c816106ec565b82525050565b60006020820190506109776000830184610953565b92915050565b600073ffffffffffffffffffffffffffffffffffffffff82169050919050565b60006109a88261097d565b9050919050565b6109b88161099d565b82525050565b60006020820190506109d360008301846109af565b92915050565b600080fd5b600080fd5b7f4e487b7100000000000000000000000000000000000000000000000000000000600052604160045260246000fd5b610a1b826107d1565b810181811067ffffffffffffffff82111715610a3a57610a396109e3565b5b80604052505050565b6000610a4d6106d8565b9050610a598282610a12565b919050565b600067ffffffffffffffff821115610a7957610a786109e3565b5b610a82826107d1565b9050602081019050919050565b82818337600083830152505050565b6000610ab1610aac84610a5e565b610a43565b905082815260208101848484011115610acd57610acc6109de565b5b610ad8848285610a8f565b509392505050565b600082601f830112610af557610af46109d9565b5b8135610b05848260208601610a9e565b91505092915050565b60008060008060808587031215610b2857610b276106e2565b5b600085013567ffffffffffffffff811115610b4657610b456106e7565b5b610b5287828801610ae0565b9450506020610b638782880161070d565b935050604085013567ffffffffffffffff811115610b8457610b836106e7565b5b610b9087828801610ae0565b925050606085013567ffffffffffffffff811115610bb157610bb06106e7565b5b610bbd87828801610ae0565b91505092959194509250565b600060208284031215610bdf57610bde6106e2565b5b6000610bed8482850161070d565b91505092915050565b600082825260208201905092915050565b6000610c1282610782565b610c1c8185610bf6565b9350610c2c81856020860161079e565b610c35816107d1565b840191505092915050565b60006080820190508181036000830152610c5a8187610c07565b9050610c696020830186610953565b8181036040830152610c7b8185610c07565b90508181036060830152610c8f8184610c07565b905095945050505050565b7f4e487b7100000000000000000000000000000000000000000000000000000000600052602260045260246000fd5b60006002820490506001821680610ce157607f821691505b602082108103610cf457610cf3610c9a565b5b50919050565b7f4e487b7100000000000000000000000000000000000000000000000000000000600052603260045260246000fd5b7f4e487b7100000000000000000000000000000000000000000000000000000000600052601160045260246000fd5b6000610d63826106ec565b91507fffffffffffffffffffffffffffffffffffffffffffffffffffffffffffffffff8203610d9557610d94610d29565b5b600182019050919050565b7f4f6e6c79207468652020636f6e7472616374206f776e6572206861732061636360008201527f65737320746f20746869732066756e6374696f6e000000000000000000000000602082015250565b6000610dfc603483610bf6565b9150610e0782610da0565b604082019050919050565b60006020820190508181036000830152610e2b81610def565b9050919050565b60008190508160005260206000209050919050565b60006020601f8301049050919050565b600082821b905092915050565b600060088302610e947fffffffffffffffffffffffffffffffffffffffffffffffffffffffffffffffff82610e57565b610e9e8683610e57565b95508019841693508086168417925050509392505050565b6000819050919050565b6000610edb610ed6610ed1846106ec565b610eb6565b6106ec565b9050919050565b6000819050919050565b610ef583610ec0565b610f09610f0182610ee2565b848454610e64565b825550505050565b600090565b610f1e610f11565b610f29818484610eec565b505050565b5b81811015610f4d57610f42600082610f16565b600181019050610f2f565b5050565b601f821115610f9257610f6381610e32565b610f6c84610e47565b81016020851015610f7b578190505b610f8f610f8785610e47565b830182610f2e565b50505b505050565b600082821c905092915050565b6000610fb560001984600802610f97565b1980831691505092915050565b6000610fce8383610fa4565b9150826002028217905092915050565b610fe782610782565b67ffffffffffffffff81111561100057610fff6109e3565b5b61100a8254610cc9565b611015828285610f51565b600060209050601f8311600181146110485760008415611036578287015190505b6110408582610fc2565b8655506110a8565b601f19841661105686610e32565b60005b8281101561107e57848901518255600182019150602085019450602081019050611059565b8683101561109b5784890151611097601f891682610fa4565b8355505b6001600288020188555050505b505050505050565b60006080820190506110c56000830187610953565b81810360208301526110d78186610c07565b905081810360408301526110eb8185610c07565b905081810360608301526110ff8184610c07565b90509594505050505056fea2646970667358221220cda7422bcbe3a86e13c03846836acb848b7ab27d1ada8d38c11374b4320f6b8464736f6c634300080f0033",
  "immutableReferences": {},
  "source": "// SPDX-License-Identifier: MIT\npragma solidity >= 0.4.0 < 0.9.0;\n\ncontract Blocks{\n\n    uint public blockCount = 0;\n\n    //address of the contract owner - where the contract will be deployed\n    address public contractOwner;\n\n    //constructor\n    constructor() {\n        contractOwner = msg.sender;\n    }\n\n    //declaring a modifier\n    modifier onlyContractOwner(address _contractOwner){\n        require(contractOwner == _contractOwner, \"Only the  contract owner has access to this function\");\n        _;\n    }\n\n    struct BlockDetails {\n        string parentHash;\n        uint256 blockNumber;\n        string stateRoot;\n        string extrinsicsRoot;\n    }\n\n  \n    //events from afunctions - stored ad transaction logs accessible through the adress of the contract\n    event blockDetailRecorded(uint256 _blockNumber, string  _parentHash, string _stateRoot, string _extrinsicsRoot);\n\n\n    //mapping to hold block details\n    mapping(uint => BlockDetails) public blocks;\n\n  \n    function addBlockDetails(string memory _parentHash, uint256 _blockNumber, string memory _stateRoot, string memory _extrinsicsRoot) public onlyContractOwner(msg.sender) {\n        //pushing new struct item into new mapping list\n        BlockDetails storage blockObj = blocks[blockCount];\n        blockObj.blockNumber = _blockNumber;\n        blockObj.parentHash = _parentHash;\n        blockObj.stateRoot = _stateRoot;\n        blockObj.extrinsicsRoot = _extrinsicsRoot;\n        emit blockDetailRecorded(_blockNumber, _parentHash, _stateRoot, _extrinsicsRoot);\n        blockCount++;\n    }\n\n    function returnMappingData(uint _begin, uint _end) external view returns(BlockDetails[5] memory){\n        BlockDetails[5] memory myArray;\n        for(uint i = _begin; i < _end; i++){\n            myArray[i] = blocks[i];\n        }\n        return myArray;\n    }\n\n}",
  "sourcePath": "/Users/mac/Documents/polygon_projects/block_headers/sol_contracts/contracts/Blocks.sol",
  "compiler": {
    "name": "solc",
    "version": "0.8.15+commit.e14f2714.Emscripten.clang"
  },
  "schemaVersion": "3.4.8",
  "updatedAt": "2022-11-20T13:47:22.340Z",
  "networkType": "ethereum",
  "devdoc": {
    "kind": "dev",
    "methods": {},
    "version": 1
  },
  "userdoc": {
    "kind": "user",
    "methods": {},
    "version": 1
  }
}